{
    "_format": "hh-sol-artifact-1",
    "contractName": "TokenBridgeMumbai",
    "sourceName": "contracts/TokenBridgeMumbai.sol",
    "abi": [
        {
            "inputs": [
                {
                    "internalType": "address",
                    "name": "_tokenAddress",
                    "type": "address"
                }
            ],
            "stateMutability": "nonpayable",
            "type": "constructor"
        },
        {
            "anonymous": false,
            "inputs": [
                {
                    "indexed": true,
                    "internalType": "address",
                    "name": "depositor",
                    "type": "address"
                },
                {
                    "indexed": false,
                    "internalType": "uint256",
                    "name": "amount",
                    "type": "uint256"
                }
            ],
            "name": "Deposit",
            "type": "event"
        },
        {
            "inputs": [
                {
                    "internalType": "address",
                    "name": "",
                    "type": "address"
                }
            ],
            "name": "balances",
            "outputs": [
                {
                    "internalType": "uint256",
                    "name": "",
                    "type": "uint256"
                }
            ],
            "stateMutability": "view",
            "type": "function"
        },
        {
            "inputs": [
                {
                    "internalType": "uint256",
                    "name": "amount",
                    "type": "uint256"
                }
            ],
            "name": "deposit",
            "outputs": [],
            "stateMutability": "payable",
            "type": "function"
        },
        {
            "inputs": [],
            "name": "depositMatic",
            "outputs": [],
            "stateMutability": "payable",
            "type": "function"
        },
        {
            "inputs": [],
            "name": "tokenAddress",
            "outputs": [
                {
                    "internalType": "address",
                    "name": "",
                    "type": "address"
                }
            ],
            "stateMutability": "view",
            "type": "function"
        }
    ],
    "bytecode": "0x608060405234801561001057600080fd5b5060405161074f38038061074f833981810160405281019061003291906100db565b806000806101000a81548173ffffffffffffffffffffffffffffffffffffffff021916908373ffffffffffffffffffffffffffffffffffffffff16021790555050610108565b600080fd5b600073ffffffffffffffffffffffffffffffffffffffff82169050919050565b60006100a88261007d565b9050919050565b6100b88161009d565b81146100c357600080fd5b50565b6000815190506100d5816100af565b92915050565b6000602082840312156100f1576100f0610078565b5b60006100ff848285016100c6565b91505092915050565b610638806101176000396000f3fe60806040526004361061003f5760003560e01c8063063699451461004457806327e235e31461004e5780639d76ea581461008b578063b6b55f25146100b6575b600080fd5b61004c6100d2565b005b34801561005a57600080fd5b50610075600480360381019061007091906103a2565b6101bb565b60405161008291906103e8565b60405180910390f35b34801561009757600080fd5b506100a06101d3565b6040516100ad9190610412565b60405180910390f35b6100d060048036038101906100cb9190610459565b6101f7565b005b60003411610115576040517f08c379a000000000000000000000000000000000000000000000000000000000815260040161010c906104e3565b60405180910390fd5b34600160003373ffffffffffffffffffffffffffffffffffffffff1673ffffffffffffffffffffffffffffffffffffffff16815260200190815260200160002060008282546101649190610532565b925050819055503373ffffffffffffffffffffffffffffffffffffffff167fe1fffcc4923d04b559f4d29a8bfc6cda04eb5b0d3c460751c2402c5c5cc9109c346040516101b191906103e8565b60405180910390a2565b60016020528060005260406000206000915090505481565b60008054906101000a900473ffffffffffffffffffffffffffffffffffffffff1681565b60008054906101000a900473ffffffffffffffffffffffffffffffffffffffff1673ffffffffffffffffffffffffffffffffffffffff166323b872dd3330846040518463ffffffff1660e01b815260040161025493929190610566565b6020604051808303816000875af1158015610273573d6000803e3d6000fd5b505050506040513d601f19601f8201168201806040525081019061029791906105d5565b5080600160003373ffffffffffffffffffffffffffffffffffffffff1673ffffffffffffffffffffffffffffffffffffffff16815260200190815260200160002060008282546102e79190610532565b925050819055503373ffffffffffffffffffffffffffffffffffffffff167fe1fffcc4923d04b559f4d29a8bfc6cda04eb5b0d3c460751c2402c5c5cc9109c8260405161033491906103e8565b60405180910390a250565b600080fd5b600073ffffffffffffffffffffffffffffffffffffffff82169050919050565b600061036f82610344565b9050919050565b61037f81610364565b811461038a57600080fd5b50565b60008135905061039c81610376565b92915050565b6000602082840312156103b8576103b761033f565b5b60006103c68482850161038d565b91505092915050565b6000819050919050565b6103e2816103cf565b82525050565b60006020820190506103fd60008301846103d9565b92915050565b61040c81610364565b82525050565b60006020820190506104276000830184610403565b92915050565b610436816103cf565b811461044157600080fd5b50565b6000813590506104538161042d565b92915050565b60006020828403121561046f5761046e61033f565b5b600061047d84828501610444565b91505092915050565b600082825260208201905092915050565b7f416d6f756e74206d7573742062652067726561746572207468616e207a65726f600082015250565b60006104cd602083610486565b91506104d882610497565b602082019050919050565b600060208201905081810360008301526104fc816104c0565b9050919050565b7f4e487b7100000000000000000000000000000000000000000000000000000000600052601160045260246000fd5b600061053d826103cf565b9150610548836103cf565b92508282019050808211156105605761055f610503565b5b92915050565b600060608201905061057b6000830186610403565b6105886020830185610403565b61059560408301846103d9565b949350505050565b60008115159050919050565b6105b28161059d565b81146105bd57600080fd5b50565b6000815190506105cf816105a9565b92915050565b6000602082840312156105eb576105ea61033f565b5b60006105f9848285016105c0565b9150509291505056fea26469706673582212209cd9bf6c5b233dc91fd69a3d7af9988542aebf88aed42b183eb27c48b8f71f3b64736f6c63430008110033",
    "linkReferences": {},
    "deployedLinkReferences": {}
}