{
    "_format": "hh-sol-artifact-1",
    "contractName": "TokenBridgeCelo",
    "sourceName": "contracts/TokenBridgeCelo.sol",
    "abi": [
        {
            "inputs": [],
            "stateMutability": "nonpayable",
            "type": "constructor"
        },
        {
            "anonymous": false,
            "inputs": [
                {
                    "indexed": true,
                    "internalType": "address",
                    "name": "depositor",
                    "type": "address"
                },
                {
                    "indexed": false,
                    "internalType": "uint256",
                    "name": "amount",
                    "type": "uint256"
                }
            ],
            "name": "Deposit",
            "type": "event"
        },
        {
            "inputs": [
                {
                    "internalType": "address",
                    "name": "",
                    "type": "address"
                }
            ],
            "name": "balances",
            "outputs": [
                {
                    "internalType": "uint256",
                    "name": "",
                    "type": "uint256"
                }
            ],
            "stateMutability": "view",
            "type": "function"
        },
        {
            "inputs": [],
            "name": "depositCelo",
            "outputs": [],
            "stateMutability": "payable",
            "type": "function"
        },
        {
            "inputs": [],
            "name": "owner",
            "outputs": [
                {
                    "internalType": "address",
                    "name": "",
                    "type": "address"
                }
            ],
            "stateMutability": "view",
            "type": "function"
        },
        {
            "inputs": [
                {
                    "internalType": "uint256",
                    "name": "amount",
                    "type": "uint256"
                },
                {
                    "internalType": "address payable",
                    "name": "recipient",
                    "type": "address"
                }
            ],
            "name": "sendCelo",
            "outputs": [],
            "stateMutability": "nonpayable",
            "type": "function"
        }
    ],
    "bytecode": "0x608060405234801561001057600080fd5b50336000806101000a81548173ffffffffffffffffffffffffffffffffffffffff021916908373ffffffffffffffffffffffffffffffffffffffff16021790555061076b806100606000396000f3fe60806040526004361061003f5760003560e01c806327e235e3146100445780638da5cb5b14610081578063928f6197146100ac578063f03b0938146100b6575b600080fd5b34801561005057600080fd5b5061006b600480360381019061006691906103b6565b6100df565b60405161007891906103fc565b60405180910390f35b34801561008d57600080fd5b506100966100f7565b6040516100a39190610426565b60405180910390f35b6100b461011b565b005b3480156100c257600080fd5b506100dd60048036038101906100d891906104ab565b610204565b005b60016020528060005260406000206000915090505481565b60008054906101000a900473ffffffffffffffffffffffffffffffffffffffff1681565b6000341161015e576040517f08c379a000000000000000000000000000000000000000000000000000000000815260040161015590610548565b60405180910390fd5b34600160003373ffffffffffffffffffffffffffffffffffffffff1673ffffffffffffffffffffffffffffffffffffffff16815260200190815260200160002060008282546101ad9190610597565b925050819055503373ffffffffffffffffffffffffffffffffffffffff167fe1fffcc4923d04b559f4d29a8bfc6cda04eb5b0d3c460751c2402c5c5cc9109c346040516101fa91906103fc565b60405180910390a2565b60008054906101000a900473ffffffffffffffffffffffffffffffffffffffff1673ffffffffffffffffffffffffffffffffffffffff163373ffffffffffffffffffffffffffffffffffffffff1614610292576040517f08c379a00000000000000000000000000000000000000000000000000000000081526004016102899061063d565b60405180910390fd5b814710156102d5576040517f08c379a00000000000000000000000000000000000000000000000000000000081526004016102cc906106a9565b60405180910390fd5b60008173ffffffffffffffffffffffffffffffffffffffff166108fc849081150290604051600060405180830381858888f1935050505090508061034e576040517f08c379a000000000000000000000000000000000000000000000000000000000815260040161034590610715565b60405180910390fd5b505050565b600080fd5b600073ffffffffffffffffffffffffffffffffffffffff82169050919050565b600061038382610358565b9050919050565b61039381610378565b811461039e57600080fd5b50565b6000813590506103b08161038a565b92915050565b6000602082840312156103cc576103cb610353565b5b60006103da848285016103a1565b91505092915050565b6000819050919050565b6103f6816103e3565b82525050565b600060208201905061041160008301846103ed565b92915050565b61042081610378565b82525050565b600060208201905061043b6000830184610417565b92915050565b61044a816103e3565b811461045557600080fd5b50565b60008135905061046781610441565b92915050565b600061047882610358565b9050919050565b6104888161046d565b811461049357600080fd5b50565b6000813590506104a58161047f565b92915050565b600080604083850312156104c2576104c1610353565b5b60006104d085828601610458565b92505060206104e185828601610496565b9150509250929050565b600082825260208201905092915050565b7f416d6f756e74206d7573742062652067726561746572207468616e207a65726f600082015250565b60006105326020836104eb565b915061053d826104fc565b602082019050919050565b6000602082019050818103600083015261056181610525565b9050919050565b7f4e487b7100000000000000000000000000000000000000000000000000000000600052601160045260246000fd5b60006105a2826103e3565b91506105ad836103e3565b92508282019050808211156105c5576105c4610568565b5b92915050565b7f4f6e6c79207369676e65722063616e2063616c6c20746869732066756e63746960008201527f6f6e000000000000000000000000000000000000000000000000000000000000602082015250565b60006106276022836104eb565b9150610632826105cb565b604082019050919050565b600060208201905081810360008301526106568161061a565b9050919050565b7f4e6f7420656e6f7567682062616c616e63650000000000000000000000000000600082015250565b60006106936012836104eb565b915061069e8261065d565b602082019050919050565b600060208201905081810360008301526106c281610686565b9050919050565b7f4661696c656420746f2073656e642043656c6f21000000000000000000000000600082015250565b60006106ff6014836104eb565b915061070a826106c9565b602082019050919050565b6000602082019050818103600083015261072e816106f2565b905091905056fea2646970667358221220da0868a2aaf9aa0f12e0da6ccb2a5d09eb85e10a8e33f1724bbe1c97f40fb2e664736f6c63430008110033",
    "linkReferences": {},
    "deployedLinkReferences": {}
}