{
    "_format": "hh-sol-artifact-1",
    "contractName": "TokenBridgeCelo",
    "sourceName": "contracts/TokenBridgeCelo.sol",
    "abi": [
        {
            "inputs": [
                {
                    "internalType": "address",
                    "name": "_tokenAddress",
                    "type": "address"
                }
            ],
            "stateMutability": "nonpayable",
            "type": "constructor"
        },
        {
            "inputs": [],
            "name": "getBalance",
            "outputs": [
                {
                    "internalType": "uint256",
                    "name": "",
                    "type": "uint256"
                }
            ],
            "stateMutability": "view",
            "type": "function"
        },
        {
            "inputs": [
                {
                    "internalType": "address",
                    "name": "recipient",
                    "type": "address"
                },
                {
                    "internalType": "uint256",
                    "name": "amount",
                    "type": "uint256"
                }
            ],
            "name": "sendToken",
            "outputs": [],
            "stateMutability": "nonpayable",
            "type": "function"
        },
        {
            "inputs": [],
            "name": "tokenAddress",
            "outputs": [
                {
                    "internalType": "address",
                    "name": "",
                    "type": "address"
                }
            ],
            "stateMutability": "view",
            "type": "function"
        }
    ],
    "bytecode": "0x608060405234801561001057600080fd5b5060405161087b38038061087b833981810160405281019061003291906100db565b806000806101000a81548173ffffffffffffffffffffffffffffffffffffffff021916908373ffffffffffffffffffffffffffffffffffffffff16021790555050610108565b600080fd5b600073ffffffffffffffffffffffffffffffffffffffff82169050919050565b60006100a88261007d565b9050919050565b6100b88161009d565b81146100c357600080fd5b50565b6000815190506100d5816100af565b92915050565b6000602082840312156100f1576100f0610078565b5b60006100ff848285016100c6565b91505092915050565b610764806101176000396000f3fe608060405234801561001057600080fd5b50600436106100415760003560e01c806312065fe014610046578063412664ae146100645780639d76ea5814610080575b600080fd5b61004e61009e565b60405161005b9190610398565b60405180910390f35b61007e60048036038101906100799190610442565b610140565b005b61008861035b565b6040516100959190610491565b60405180910390f35b60008060009054906101000a900473ffffffffffffffffffffffffffffffffffffffff1673ffffffffffffffffffffffffffffffffffffffff166370a08231306040518263ffffffff1660e01b81526004016100fa9190610491565b602060405180830381865afa158015610117573d6000803e3d6000fd5b505050506040513d601f19601f8201168201806040525081019061013b91906104c1565b905090565b3073ffffffffffffffffffffffffffffffffffffffff163373ffffffffffffffffffffffffffffffffffffffff16146101ae576040517f08c379a00000000000000000000000000000000000000000000000000000000081526004016101a590610571565b60405180910390fd5b60008060009054906101000a900473ffffffffffffffffffffffffffffffffffffffff16905060003090508173ffffffffffffffffffffffffffffffffffffffff1663095ea7b382856040518363ffffffff1660e01b8152600401610214929190610591565b6020604051808303816000875af1158015610233573d6000803e3d6000fd5b505050506040513d601f19601f8201168201806040525081019061025791906105f2565b610296576040517f08c379a000000000000000000000000000000000000000000000000000000000815260040161028d9061066b565b60405180910390fd5b8173ffffffffffffffffffffffffffffffffffffffff166323b872dd8286866040518463ffffffff1660e01b81526004016102d39392919061068b565b6020604051808303816000875af11580156102f2573d6000803e3d6000fd5b505050506040513d601f19601f8201168201806040525081019061031691906105f2565b610355576040517f08c379a000000000000000000000000000000000000000000000000000000000815260040161034c9061070e565b60405180910390fd5b50505050565b60008054906101000a900473ffffffffffffffffffffffffffffffffffffffff1681565b6000819050919050565b6103928161037f565b82525050565b60006020820190506103ad6000830184610389565b92915050565b600080fd5b600073ffffffffffffffffffffffffffffffffffffffff82169050919050565b60006103e3826103b8565b9050919050565b6103f3816103d8565b81146103fe57600080fd5b50565b600081359050610410816103ea565b92915050565b61041f8161037f565b811461042a57600080fd5b50565b60008135905061043c81610416565b92915050565b60008060408385031215610459576104586103b3565b5b600061046785828601610401565b92505060206104788582860161042d565b9150509250929050565b61048b816103d8565b82525050565b60006020820190506104a66000830184610482565b92915050565b6000815190506104bb81610416565b92915050565b6000602082840312156104d7576104d66103b3565b5b60006104e5848285016104ac565b91505092915050565b600082825260208201905092915050565b7f4f6e6c79206272696467652063616e2063616c6c20746869732066756e63746960008201527f6f6e000000000000000000000000000000000000000000000000000000000000602082015250565b600061055b6022836104ee565b9150610566826104ff565b604082019050919050565b6000602082019050818103600083015261058a8161054e565b9050919050565b60006040820190506105a66000830185610482565b6105b36020830184610389565b9392505050565b60008115159050919050565b6105cf816105ba565b81146105da57600080fd5b50565b6000815190506105ec816105c6565b92915050565b600060208284031215610608576106076103b3565b5b6000610616848285016105dd565b91505092915050565b7f417070726f76616c206661696c65640000000000000000000000000000000000600082015250565b6000610655600f836104ee565b91506106608261061f565b602082019050919050565b6000602082019050818103600083015261068481610648565b9050919050565b60006060820190506106a06000830186610482565b6106ad6020830185610482565b6106ba6040830184610389565b949350505050565b7f5472616e73666572206661696c65640000000000000000000000000000000000600082015250565b60006106f8600f836104ee565b9150610703826106c2565b602082019050919050565b60006020820190508181036000830152610727816106eb565b905091905056fea26469706673582212208c0e9908320c5fab26a2f2e12111d8f019048cbde98fc3a3aaf009c67f0ea38164736f6c63430008110033",
    "linkReferences": {},
    "deployedLinkReferences": {}
}